:0406C400022100000F
:10000300D3EF9400EE940040147D6E7C00ED1D70E0
:0D001300011CED4C70F7EF1F70E61E80E33E
:0100200022BD
:0404D2007FE87E033E
:0A04D600EF1FAC0670011E4C60120F
:1004E000E4F519E519C394FA50EC00000000051971
:0204F00080F199
:0104F20022E7
:10032300759850E4F587758920D2AFD2AC758BFDF3
:10033300758DFDD28E7F0AFE1204D61206C9E4FF24
:1003430012014B120638E4F5181204D20518E51809
:10035300C3940840F48016E5226401452170157F9B
:100363000112014B1206381204D21204D2E4F52111
:10037300F52280E3E5226402452170DB7F0212014E
:100383004B120638E4F518E518C3940350C9120458
:05039300D2051880F204
:1005C800AD071FED600BE4FEEEC3940D50F20E80F4
:0105D800F72B
:0105D90022FF
:0306C9000206B373
:0B06A800EF1FAC0670011E4C70F62224
:10014B00C2A7EFB40D00400302020890015DF8282E
:10015B00287302018402018D0201970201A10201A1
:10016B00AB0201B50201BF0201C90201D30201DDDD
:10017B000201E70201F10201FB7B3F7A00E4FDFC87
:10018B0080767B857A007D777C00806C7BEE7A00B5
:10019B007D957C0080627BAE7A007DA57C008058CB
:1001AB007BBE7A007DB57C00804E7BC97A007DC119
:1001BB007C0080447BD57A007DCA7C00803A7BE151
:1001CB007A007DD57C0080307BEE7A007DE27C006E
:1001DB0080267BFA7A007DF17C00801C7B097A01FA
:1001EB007DFB7C0080127B157A017D097C018008E8
:1001FB007B477A017D277C017F901204A9D2A7222D
:1005EC008F2A1205FD7F307E751206A8AF2A0201F4
:0105FC004BB3
:0300230002020BCB
:10020B00C0E0C0F0C083C082C0D0C2ACC298859998
:10021B0023752100752201E52324CFB40900505921
:10022B0090023975F003A4C58325F0C583730202D0
:10023B005402025902025E02026302026802026D5C
:10024B0002027202027702027C5390FE80315390BD
:10025B00FD802C5390FB80275390F780225390EF17
:10026B00801D5390DF80185390BF801353907F8075
:10027B000E7521007522028006752100752201D2B0
:0C028B00ACD0D0D082D083D0F0D0E032D4
:1000260020980302012885992BE52BB409031205B4
:100036009EE52BB444031205DAE52BB44003120601
:1000460038E52BB4040312061CE52BB40503120590
:1000560085E52BB44303120654E52BB401031206BF
:10006600B3E52BB402031205FDE52BB40303120618
:100076000EE52BB4060312054FE52BB40703120653
:100086002AE52BB4080312056AE52BB441031205D1
:10009600B3E52BB44203120646E52BB44503120022
:1000A60021E52BB46503120662E52BB4460312065E
:1000B60070E52BB4470312067EE52BB448031206FF
:1000C6008CE52BB4490312069AE52BB4600312049F
:1000D6007DE52BB480057F90120440E52BB4810D9D
:1000E6007F911204407511817F01120532E52BB410
:1000F60082057F92120440E52B64657023C2983016
:1001060098FDAF99AD07ED7D00FCC2983098FDAF24
:1001160099EF4205E4C298C2A77F651204F3D2A7FD
:10012600C29830001F1206BDE4F52BAF100510A8CB
:1001360007E6F5993099FDC299052BE52BD3940274
:0401460040E9C200CA
:01014A002292
:02044000A9070A
:10044200C2983098FDAF99AD07ED7D00FCC298309F
:1004520098FDAF99EF4205C2983098FDAF99AB076E
:10046200ED7B00FAC2983098FDAF99EF4203E4C2E7
:0A04720098C2A7AF011204A9D2A797
:01047C00225D
:0A06B300C2A77F01120398D2A7220C
:1005FD00C2A77F02120398D2A77511027F010205CF
:01060D0032BA
:0E060E00C2A77D027C007F0312039CD2A722AC
:0E061C00C2A77D027C007F0412039CD2A7229D
:10058500C2A77D037C007F0512039CD2A7AF12850D
:0905950011128F117F03020532DF
:10047D00C2A77D037C007F0512039CD2A7AF12E5B6
:10048D001233333354F8FEE511C41354074EF512ED
:0C049D00EFC4135407F5117F0302053271
:10054F00C2A77D047C007F0612039CD2A7E514543A
:0B055F0003851314F5137F040205321E
:0E062A00C2A77D027C007F0712039CD2A7228C
:10056A00C2A77D047C007F0812039CD2A7E514541D
:0B057A0003851314F5137F0402053203
:10059E00C2A77D037C007F0912039CD2A75313F8D8
:0505AE007F030205328D
:0E063800C2A77D027C007F5012039CD2A72235
:1005B300C2A77D027C007F5112039CD2A775114113
:0505C3007F010205327A
:0E064600C2A77D027C007F5212039CD2A72225
:0E065400C2A77D027C007F5312039CD2A72216
:1005DA00C2A77D047C007F4412039CD2A77F040239
:0205EA000532D8
:0100210022BC
:0E066200C2A77D007C047F651204F3D2A7229C
:0E067000C2A77D027C007F4612039CD2A72207
:0E067E00C2A77D027C007F4712039CD2A722F8
:0E068C00C2A77D027C007F4812039CD2A722E9
:0E069A00C2A77D027C007F4912039CD2A722DA
:020532008F2C0C
:100534001206BDE4FFAE100510A806E6F599309941
:0A054400FDC2990FEFC3952C40EBA8
:01054E00228A
:0706BD0075080975101122F8
:040398007D027C0066
:04039C008C198D1A11
:1003A000E4F51B8F0975080AAF080508A807E4F6ED
:1003B000E51A24FFFFE51934FFFE051BC3E51B9F6B
:1003C000EE6480F874809840DF1206BDE4F51B12DD
:1003D00003ECAE100510A806A607051BC3E51B9588
:0B03E0001AE5196480F874809840E46E
:0103EB0022EF
:1004F3008F098D0A8C0B1206BDE4F52D1203ECAEA9
:10050300100510A806A607052DE52DC3940340EC9E
:0105130022C5
:1004A9008F09E4F50A8D0B8C0C8B0D8A0EF50F1252
:1004B90006BDF5191203ECAE100510A806A607052E
:0804C90019E519D3940740EC7A
:0104D1002208
:0803EC00AF080508A807E6FFB1
:0203F4008F1C5C
:1003F600E4F51DF51EC2A67F017E00120514AF1D91
:10040600E51CA807088002C313D8FC30E004D2A577
:100416008002C2A5E51EC31330A3064480F51E80E4
:1004260002F51ED2A67F017E00120514051DE51DEC
:09043600D3940740C0C2A5AF1E1B
:01043F00229A
:10051400C3EF9401EE648094804012E51FD39414D9
:0D0524005004051F80F5EF1F70E61E80E3F8
:0105310022A7
:0300000002029762
:0C029700787FE4F6D8FD75812D0202DEB0
:1002A300020323E493A3F8E493A34003F68001F24B
:1002B30008DFF48029E493A3F85407240CC8C3335C
:1002C300C4540F4420C8834004F456800146F6DF2B
:1002D300E4800B01020408102040809006C4E47EF1
:1002E300019360BCA3FF543F30E509541FFEE49320
:1002F300A360010ECF54C025E060A840B8E493A3E7
:10030300FAE493A3F8E493A3C8C582C8CAC583CA11
:10031300F0A3C8C582C8CAC583CADFE9DEE780BEC9
:0106C8000031
:00000001FF
